:020000001628C0
:0E0006008312031321088A00200882000800DC
:1000140003208A110A128000840AA00A0319A10A83
:08002400F003031D0A28080087
:10002C000130831603138600831286018316870121
:10003C0083128701061CA2283F3087000330FB0087
:10004C008A30FC005530FD00FD0B2A28FC0B2A28B9
:10005C00FB0B2A2800000000063087000330FB0051
:10006C008A30FC005530FD00FD0B3A28FC0B3A2879
:10007C00FB0B3A28000000005B3087000330FB00CC
:10008C008A30FC005530FD00FD0B4A28FC0B4A2839
:10009C00FB0B4A28000000004F3087000330FB00A8
:1000AC008A30FC005530FD00FD0B5A28FC0B5A28F9
:1000BC00FB0B5A2800000000663087000330FB0061
:1000CC008A30FC005530FD00FD0B6A28FC0B6A28B9
:1000DC00FB0B6A28000000006D3087000330FB002A
:1000EC008A30FC005530FD00FD0B7A28FC0B7A2879
:1000FC00FB0B7A28000000007D3087000330FB00EA
:10010C008A30FC005530FD00FD0B8A28FC0B8A2838
:10011C00FB0B8A2800000000073087000330FB002F
:10012C008A30FC005530FD00FD0B9A28FC0B9A28F8
:0C013C00FB0B9A28000000002028A328DC
:02400E007A3BFB
:00000001FF
