:020000001628C0
:0E0006008312031321088A00200882000800DC
:1000140003208A110A128000840AA00A0319A10A83
:08002400F003031D0A28080087
:10002C000130831603138600831286018316870121
:10003C0083128701061C6428013087000630FB0000
:10004C001330FC00AD30FD00FD0B2A28FC0B2A28D8
:10005C00FB0B2A2800000000023087000330FB0055
:10006C008A30FC005530FD00FD0B3A28FC0B3A2879
:10007C00FB0B3A2800000000043087000630FB0020
:10008C001330FC00AD30FD00FD0B4A28FC0B4A2858
:10009C00FB0B4A2800000000023087000330FB00F5
:1000AC008A30FC005530FD00FD0B5A28FC0B5A28F9
:1000BC00FB0B5A280000000001308700202865281F
:02400E007A3BFB
:00000001FF
