:020000000629CF
:0E000600533083120313FD00FD0B0728080082
:10001400243083120313FC00B530FD00FD0B1028BF
:0A002400FC0B10280000000008008B
:0C002E00000000000000000000000800BE
:10003A0083120313DF1B23288611242886155F1BCE
:10004A002828061129280615DF1A2D2886102E2899
:10005A0086145F1A322806103328061457183728D0
:10006A00061638280612861617208612DF193F2828
:10007A008611402886155F19442806114528061559
:10008A00DF18492886104A2886145F184E28061059
:10009A004F2806145718532806165428061286168F
:1000AA0017208612571C5B280A205C2803200800A8
:0E00BA008312031359088A00580882000800B8
:1000C8008312031357105E08DF001D205714080021
:1000D800831603138612061206108610061186115F
:1000E80083128612061286110611861006100A203F
:1000F8000A200A20861406148616172086120A205B
:100108008616172086120A208616172086120A20BD
:1001180006108616172086120A20861617208612C1
:10012800861086158616172086120A208611061450
:1001380086161720861206108616172086120A20A1
:1001480086161720861206148616172086120A208D
:1001580006108616172086128615061586140614AC
:0C0168008616172086120A205714080083
:10017400CC28803083120313DA00DF28C030DA0081
:10018400DF289430DA00DF28D430DA00DF2880302A
:10019400DA00DF28831203135A08013A0319BB2833
:1001A4005A08023A0319C0285A08033A0319C32803
:1001B4005A08043A0319C628C9285B03F0005A08F0
:1001C400F0077008DA007008DF001D205710DD0109
:1001D4005D085C07840000080319F8285D085C07C3
:1001E40084000008DE006420DD0AEA2857140800B1
:1001F4005D208A110A128000840AD80A0319D90AD8
:08020400F003031DFA280800B5
:10020C00842183160313860183128601033083161F
:10021C008700831287016C200C30DF001D20013019
:10022C00DA000130DB004C30DC00BA200708013A60
:10023C00031D31290130DF001D200130DA000130AF
:10024C00DB004030DC00BA200230DA000130DB0089
:10025C002A30DC00BA200708023A031D4629013077
:10026C00DF001D200130DA000130DB002030DC0023
:10027C00BA200230DA000130DB003430DC00BA2066
:04028C001C294729B9
:1003080020308400373083120313F0004D30D800BA
:080318000130D900FA200800B1
:10029A0020344934443420343A3420343334363424
:0402AA0037340034B1
:1002AE0020344934443420343A3420343334363410
:0402BE00373400349D
:1002C2004E3461346D3465343A34203452346134FE
:0802D200683475346C3400340B
:1002DA004E3461346D3465343A34203452346134E6
:0802EA00683475346C340034F3
:1002F20020342034203420342034503420345534F7
:06030200203443340034F6
:02400E007A3BFB
:00000001FF
